0090211099999090211                                                                                                                                  
18888                                                                                                                                                
20000000000000000000000000001001188888650000000000000000000000000209090000000118                                                                     
58650000100001500000000021234567000000000000000000000000000000000000000000000001040722-OLBCOR-0410826-21830740MAPLE BILL                             
58650000200001021000000027654321000000000000000000000000000000000000000000000001000483-979021-BBP0210-21830740ASH MARY                               
80000001521000000000000000001001188888650000200000000000000000000209090000000118                                                                     
20000000000000000000000000001002188888660000000000000000000000000210090000002568                                                                     
58660000100000055000000021111111000000000000000000000000000000000000000000000001040333-OLBCOR-0420836-21830740PINE MIKE                              
58660000200002222000000022222222000000000000000000000000000000000000000000000001000444-555021-BCP0210-21830740SMITH JOE                              
58660000300050000000000023333333000000000000000000000000000000000000000000000001000555-999023-BAP0210-21830740PMITH JANE                             
80000052277000000000000000001002188888660000200000000000000000000210090000002568                                                                     
20000000000000000000000000001003188888670000000000000000000000000210090000000010                                                                     
58670000100000004000000024444444000000000000000000000000000000000000000000000001040722-OLBCOR-0410826-21830740DOE JOHN                               
80000000004000000000000000001003188888670000200000000000000000000210090000000010                                                                     
9090211099999000000001500000005380200 