0090825666999090825                                                                                                                                   
12222                                                                                                                                                 
20000000000000000000000000001869122228220000000000000000000000000823090000000114000482389                                                             
5822000010000035000055566778899000000000339900000000000000000000000000000000000102190311123                   MAPLE, KEN                              
5822000020000000500055566777799000000000339900000000000000000000000000000000000102190311124                   MAPLE, KEN                              
5822000030000050000055566668899000000000339900000000000000000000000000000000000102190311125                   FERN, JOE                               
5822000040000002900055566775599000000000339900000000000000000000000000000000000102190311126                   KING, TROY                              
5822000050000020000055533778899000000000339900000000000000000000000000000000000102190311127                   LIME, BOB                               
5822000060000007500055566771199000000000339900000000000000000000000000000000000102190311128                   BIG BOOK STORE                          
5822000070000016000055544778899000000000339900000000000000000000000000000000000102190311129                   MRS BUTTERCUP                           
5822000080000005167055566228899000000000339900000000000000000000000000000000000102190311130                   WILL PINE                               
5822000090000020000044466228899000000000339900000000000000000000000000000000000102190311131                   1111111 ONTARIO LTD                     
80000001570670000000000000001869122228220000900000000000000000000823090000000114000482389                                                             
11987                                                                                                                                                 
20000000000000000000000000001003119878480000000000000000000000000824090000000018000300488                                                             
584800001000000899301234445556660000000000790000000000000000000000000000000000000003002261                    DEB ASPEN                               
584800002000001500001235555556660000000000800000000000000000000000000000000000000003002262                    AARON REDWOOD                           
584800003000000985001236665556660000000000710000000000000000000000000000000000000003002263                    DEEDEE MULBERRY                         
584800004000001653901237775556660000000000820000000000000000000000000000000000000003002264                    MISKA LOCUST                            
584800005000002017901238885556660000000000800000000000000000000000000000000000000003002265                    1111111 SASK LTD                        
584800006000000072401239995556660000000000830000000000000000000000000000000000000003002266                    sAM HICKORY                             
80000000712850000000000000001003119878480000600000000000000000000824090000000018000300488                                                             
14111                                                                                                                                                 
20000000000000000000000000001001141118430000000000000000000000000824090000000114001033602                                                             
58430000100000264900987654333333000000007000000000000000000000000000000000000001199999-ABCP6V-4444137-20355555JOE PORK                                
58430000200000133800987653333333000000007000000000000000000000000000000000000001199999-ABCP6s-3444704-20355556MINER LEA                               
58430000300000347700987652333333000000007000000000000000000000000000000000000001799999-ABCP5V-2444028-203555570WINDY WENDY                            
58430000400000268200987651333333000000007000000000000000000000000000000000000001599999-ABCPOR-1444230-20355558SAPLING LIZ                             
58430000500000264900987654433333000000007000000000000000000000000000000000000001099999-ABCP2R-0444233-20355559LURCH SARAH                             
58430000600000133800987654533333000000007000000000000000000000000000000000000001899999-ABCP4R-9444234-20355560MIKEY SANDCHERRY                        
58430000700000147100987654633333000000007000000000000000000000000000000000000001699999-ABCP8R-8444235-20355561LUMPKIN FANNY                           
80000001560400000000000000001001141118430000700000000000000000000824090000000114001033602                                                             
14112                                                                                                                                                 
20000000000000000000000000001004141128620000000000000000000000000823090000000114000482389                                                             
5862000010000046200099999888555500000000000100000000000000000000000000000000000102111AA22VV                   DIMPLE, DAVE                            
5862000020000026100099999888445500000000000100000000000000000000000000000000000102111AA33VV                   ASH, CHRIS                              
5862000030000024950099999888335500000000000100000000000000000000000000000000000102111AA44VV                   CONESTOGA, HENRY                        
5862000060000025500099999888225500000000000100000000000000000000000000000000000102111AA55VV                   GERKIN, TOM                             
5862000070000030710099999888225500000000000100000000000000000000000000000000000102111AA66VV                   BAKER, LUCY                             
80000001534600000000000000001004141128620000700000000000000000000823090000000114000482389                                                             
20000000000000000000000000001006141128630000000000000000000000000824090000000114000615801                                                             
58630000100000321180021654987011000000000003000000000000000000000000000000000001000688855555555555555666      CLIENT A                                
58630000200000169950021654987012000000000003000000000000000000000000000000000001000688855555555555555667      CLIENT B                                
58630000300000873050021654987013000000000003000000000000000000000000000000000001000688855555555555555668      CLIENT C                                
58630000400000566800021654987014000000000003000000000000000000000000000000000001000688855555555555555669      YI, MY                                  
58630000500000893550021654987015000000000003000000000000000000000000000000000001000688855555555555555660      PUMPKIN, ICHABOD                        
80000002824530000000000000001006141128630000500000000000000000000824090000000114000615801                                                             
20000000000000000000000000001869141128640000000000000000000000000824090000000114000100022                                                             
586400001000005275600216549870280000000000010000000000000000000000000000000000010001S4D6F546SD5F464S44FSD44651LARUE, JOHNNY                           
586400002000007771700216549870290000000000010000000000000000000000000000000000010001S4D6F546SD5F464S44FSD44652KRUNK, BILLY                            
586400003000003304000216549870300000000000000000000000000000000000000000000000010005S4D6F546SD5F464S44FSD44654PEANUT, SANDERS                         
586400004000000818000216549870310000000000000000000000000000000000000000000000010009S4D6F546SD5F464S44FSD44654QUICKIE MART 33                         
80000001716930000000000000001869141128640000400000000000000000000824090000000114086900001                                                             
14113                                                                                                                                                 
20000000000000000000000000001001141138690000000000000000000000000824090000000114                                                                      
58690000100000427000555555555555000000000002000000000000000000000000000000000001123456-HRTHJKY-987654-65565811BEECH, GEORGE                           
80000000427000000000000000001001141138690000100000000000000000000824090000000114                                                                      
20000000000000000000000000001006141138000000000000000000000000000824090000000114000615801                                                             
58000000100000566800666666666666000000000003000000000000000000000000000000000001000611123456789798461345      CLIENT D                                
80000000566800000000000000001006141138000000100000000000000000000824090000000114000615801                                                             
20000000000000000000000000001002141138010000000000000000000000000824090000000114000271506                                                             
58010000100000810000777777777777000000000003000000000000000000000000000000000001000233333333                  ARNOLD, BENNEDICT                       
80000000810000000000000000001002141138010000100000000000000000000824090000000114000271506                                                             
19111                                                                                                                                                 
20000000000000000000000000000505191118520000000000000000000000000824090000000018                                                                      
58520000100000100000519123301234000000000081000000000000000000000000000000000000001234-ABCP60-DFGH926-12345678FLOYD, PINK                             
58520000200000025000519123301234000000000081000000000000000000000000000000000000007534-ABCP39-23DFGG7-12345678FLOYD, PINK                             
58520000300000329020519123301255000000000079000000000000000000000000000000000000979134-ABCF77-2SSDG09-12345678UMBRELLA, DEAN                          
58520000400000148420519123301266000000000072000000000000000000000000000000000000872234-ABCG05-DFGF152-12345678MONSTER, COOKIE                         
58520000500000259260519123301277000000000083000000000000000000000000000000000000000234-ABCJ34-BBDFG24-12345678RIGID CHAIR LTD. INC.                   
80000000861700000000000000000505191118520000500000000000000000000824090000000018                                                                      
9090825666999000000004600000001258548